:020000040800F2
:1000000000100020A52500088D08000891080008B0
:1000100000000000000000000000000000000000E0
:10002000000000000000000000000000950800082B
:100030000000000000000000990800089D0800086A
:10004000F525000800000000F5250008F52500084A
:10005000F5250008F5250008F5250008F525000818
:1000600000000000F5250008A5080008BD080008EC
:10007000F5250008D5080008F52500080000000057
:10008000E50800080000000000000000F525000859
:1000900000000000F5250008F5250008F5250008FA
:1000A00000000000F525000800000000F52500080C
:1000B0000000000000000000000000000000000040
:1000C00010B5064C2378002B07D1054B002B02D02E
:1000D000044800E000BF0123237010BD94000020FD
:1000E00000000000F8250008044B10B5002B03D0D9
:1000F0000349044800E000BF10BDC04600000000F6
:1001000098000020F8250008002243088B4274D391
:1001100003098B425FD3030A8B4244D3030B8B4208
:1001200028D3030C8B420DD3FF22090212BA030C11
:100130008B4202D31212090265D0030B8B4219D3F2
:1001400000E0090AC30B8B4201D3CB03C01A524112
:10015000830B8B4201D38B03C01A5241430B8B425A
:1001600001D34B03C01A5241030B8B4201D30B0343
:10017000C01A5241C30A8B4201D3CB02C01A52416A
:10018000830A8B4201D38B02C01A5241430A8B422D
:1001900001D34B02C01A5241030A8B4201D30B0216
:1001A000C01A5241CDD2C3098B4201D3CB01C01A30
:1001B000524183098B4201D38B01C01A524143093A
:1001C0008B4201D34B01C01A524103098B4201D328
:1001D0000B01C01A5241C3088B4201D3CB00C01A95
:1001E000524183088B4201D38B00C01A524143080D
:1001F0008B4201D34B00C01A5241411A00D2014632
:10020000524110467047FFE701B5002000F006F8A4
:1002100002BDC0460029F7D076E770477047C04658
:1002200003008218934200D1704719700133F9E737
:1002300070B500260C4C0D4D641BA410A64209D1CC
:10024000002602F0D9F90A4C0A4D641BA410A642FC
:1002500005D170BDB300EB5898470136EEE7B30007
:10026000EB5898470136F2E74C6900084C690008E2
:10027000506900084C6900087047C046F0B5574601
:100280004E464546DE46E0B5784B87B00493784B42
:1002900000279B46774B01260593774B0500984630
:1002A000764B02919946764B9A462A000023AC463B
:1002B00001970199D8B2814245D994881068009479
:1002C00090241900E405A04267D06E4CA04200D1F2
:1002D000AFE00098440003254846A5400068A843C5
:1002E000029D2D880D412E4200D16FE0350000990E
:1002F0008D40514609682943554629603100A14087
:1003000001434846016001330832112BD1D1049BCF
:1003100065460433049304239C46059B019F0433E4
:100320000593029B01370233FFB2E344E044E1440A
:10033000E2440293102FB8D107B0F0BCBB46B246DE
:10034000A946A046F0BD9488156800949024411EEB
:10035000C9B2E405A5423CD00327009C6400A74035
:10036000FF430397474FBD424ED0019D8542B2D116
:1003700049460398096801403000A04001434846BF
:1003800001603000009910318840514609680143EE
:1003900050460160013308328BE70325009F584621
:1003A0007C00A5400068A843050002980088084129
:1003B000064226D03000B840049F396801433960B6
:1003C0003100A1405846294301609CE74946086036
:1003D00099E7019C8442E0D10324009D59466800BE
:1003E00084400968A1433400844058462143016099
:1003F0002900300010318840049C216801432160AD
:10040000C8E759460D607EE7019D854213D14146FC
:100410000398096801403000A04001434046016054
:1004200030000099059C103188402168014321600B
:10043000B0E700984400404605680320A04085438B
:1004400002980088084106420CD030000099059FB0
:1004500088403968014339603100A1404046294352
:10046000016050E741460D604DE7C0463001002075
:10047000F0010020F0000020B001002070010020F9
:10048000B00000200004004810B594B02C220021D8
:1004900009A8FFF7C5FE102200216846FFF7C0FE3D
:1004A0001022002104A8FFF7BBFE0223089310933B
:1004B000A023012410229B0308A80B940C921293F2
:1004C00000F0F2FE002801D072B6FEE707220223F8
:1004D00000920193002200230121684602920393B7
:1004E00001F03AF9002801D072B6FEE7069004A8A0
:1004F000049401F01BFA002801D072B6FEE714B094
:1005000010BDC046F0B5D64646464F46C0B59AB077
:1005100001F0CAFAFFF7B8FF1422002112A8FFF772
:100520007FFE8022BF4CD2036369032113436361C2
:100530006369BD48134080220193019B6369920265
:100540001343636163690025134080220293029B79
:100550006369D20213436361636901261340039305
:100560000022039B01F0A4FC9020B04B0327984687
:1005700019000022C00501F09BFC00220121AC48BB
:1005800001F096FCA84812A9139612971495159796
:1005900001F0BEFA9020434612A9C00512931396AB
:1005A0001495159701F0B4FAA14812A91296139662
:1005B0001495159701F0ACFA636900223343636127
:1005C000636900211E400A200096009B01F024FD73
:1005D0000A2001F04BFD002200210B2001F01CFD40
:1005E0000B2001F043FD1022002106A8FFF718FEA2
:1005F0000822002104A8FFF713FE1C2200210AA8EC
:10060000FFF70EFE2022002112A8FFF709FE894CF9
:10061000894B20002360894B6560A560E3602561FC
:100620006561A56100F074FA002801D072B6FEE79A
:10063000802320005B0106A9069300F077FC0028C8
:1006400001D072B6FEE7200000F008FB002801D0C0
:1006500072B6FEE700260027200004A9049605973D
:1006600000F0C2FD021E01D072B6FEE70A900B90A8
:100670000C900D9010900AA920000E960F9700F094
:1006800069FB002801D072B6FEE7042220000AA907
:1006900000F060FB002801D072B6FEE708222000BF
:1006A0000AA900F057FB002801D072B6FEE70C2221
:1006B00020000AA900F04EFB002801D072B6FEE728
:1006C0008023002212901390149015909B01199092
:1006D00012A920001692179300F0B0FD061E01D05B
:1006E00072B6FEE70100102212A8FFF799FD08225A
:1006F00031000AA8FFF794FD514D524B28002B60A2
:10070000514B6E60AE60EB602E61AE6100F000FA9E
:10071000002801D072B6FEE780262800760112A9D3
:10072000129600F003FC002801D072B6FEE700220A
:10073000002328000AA90A920B9300F055FD021E1F
:1007400001D072B6FEE7414B414918001960E12320
:100750005B0243600C238260C2600261436182617C
:10076000C2610262426201F05DFE002801D072B6F1
:10077000FEE7200000F048FA280000F045FAFFF7F5
:100780007BFD344B344D1968344F49013800491909
:10079000FFF774FD10233249234A324801F0C2FBAF
:1007A000802322689B00D1682F480B43D36090229E
:1007B00010232E49D20501F0B5FB80232268DB000F
:1007C000D1682B480B43D3602A4910232A4A01F0F1
:1007D000A9FB23682949DA6829481643DE60294ABB
:1007E000102301F09FFB802322681B01D1680B437B
:1007F000D36028239A46F133FF339946D133FF3330
:1008000098462E00002431003800FFF737FD0134F0
:10081000504601F06BF920364C45F4D1404601F0CA
:1008200065F9EEE70010024000140048FFF90000EF
:100830000004004810040020002C01405702000072
:10084000C8030020000400401F4E000030020020BA
:100850000038014058040020102600080000002045
:10086000700100208403002040030020F0010020DC
:10087000FC020020B00000201414004830010020C9
:10088000B80200201400004872B6FEE7FEE7C0463A
:10089000FEE7C0467047C0467047C04610B501F03D
:1008A00013F910BD10B5034801F068FB024801F0D0
:1008B00065FB10BD840300204003002010B50348F1
:1008C00001F05CFB024801F059FB10BDFC02002066
:1008D000B802002010B5024800F0E2FB10BDC0468F
:1008E0001004002010B5024800F0DAFB10BDC0462D
:1008F000C803002001220A4B82B099691143996113
:1009000099690A4080210092009ADA6949050A43F0
:10091000DA61DB690B400193019B02B07047C0466E
:100920000010024030B50368544A040083B093427B
:1009300005D0534A934200D181E003B030BD8023FB
:10094000504A1B019169504D1943916192696B6145
:100950001A400092009A4D4A20232A6010226A60B1
:100960000022AB618023AA608032EA608132FF32CC
:100970009B0128002A61EB6101F0A0FA002879D1DF
:10098000434B65626C62434D2B6010236B60002308
:10099000AB608033EB608133FF332B6180231B011D
:1009A0006B612023AB61802328009B01EB6101F088
:1009B00085FA00285BD1384BA5626C62374D2B60FD
:1009C00010236B600023AB608033EB608133FF3317
:1009D0002B6180231B016B612023AB6180232800E6
:1009E0009B01EB6101F06AFA00283DD12C4B256395
:1009F0006C62A56365632B4D2B6010236B60002335
:100A0000AB608033EB608133FF332B6180231B01AC
:100A10006B612023AB61802328009B01EB6101F017
:100A20004DFA00281DD12562002201210D20E5622A
:100A30006C6201F0F1FA0D2001F018FB7DE7022352
:100A4000104A1020D1691943D161D26900211340A5
:100A500001930022019B01F0DFFA102001F006FB58
:100A60006BE7FFF711FFDEE7FFF70EFFBEE7FFF7CB
:100A70000BFFA0E7FFF708FF82E7C046002C01400C
:100A80000004004000100240840300201C000240CB
:100A9000300002404003002044000240FC020020DD
:100AA00058000240B802002010B5040088B014229B
:100AB000002102A8FFF7B4FB134B22689A4201D031
:100AC00008B010BD8021114BC9019A6990200A43DA
:100AD0009A619A69C0050A4080210092009A5A6979
:100AE00089020A435A615B69C0220B400193019B52
:100AF0000223D20002920393032302A90593023B2F
:100B0000069301F005F8DBE70038014000100240D1
:100B100070B5041E64D03D23C35CDAB2002B4FD005
:100B20003D230222E2542368314E1A68A569E06829
:100B30006168B34212D02F4EB3420FD02E4EB34253
:100B400050D02E4EB34240D02D4EB3423DD08026E1
:100B5000B2432A431A60D862996212E07026B24307
:100B6000A6683243274E3240266932438026B2437C
:100B70002A431A601E4AD8629962934201D162697F
:100B80001A6301225A6119690A4202D01969914314
:100B90001961012346220020A354083AA3540132CC
:100BA000A3540132A3540132A3540132A35401329D
:100BB000A3540132A3540132A354083AA35470BD84
:100BC0003C33C254FFF7AEFEAAE70E4E3240266910
:100BD00032438026B2432A431A60D8629962CEE734
:100BE0000120ECE7074E324026693243AFE7C046AA
:100BF000002C01400004004000200040004401405F
:100C000000480140FFFCFFFF3D2110B5425C03009E
:100C1000D4B20120012A0FD101325A541B68DA687C
:100C20002243DA600A4A934207D00A4A934204D028
:100C30001A6822431A60002010BD072299680A40F2
:100C4000062AF8D001211A6800200A431A60F3E747
:100C5000002C0140000400407047C04670B5041EDF
:100C600064D03D23C35CDAB2002B4FD03D23022277
:100C7000E2542368314E1A68A569E0686168B3429E
:100C800012D02F4EB3420FD02E4EB34250D02E4E24
:100C9000B34240D02D4EB3423DD08026B2432A43CA
:100CA0001A60D862996212E07026B243A668324395
:100CB000274E3240266932438026B2432A431A60C7
:100CC0001E4AD8629962934201D162691A63012275
:100CD0005A6119690A4202D01969914319610123C5
:100CE00046220020A354083AA3540132A3540132EF
:100CF000A3540132A3540132A3540132A35401324C
:100D0000A3540132A354083AA35470BD3C33C254D7
:100D1000FFF7A2FFAAE70E4E324026693243802633
:100D2000B2432A431A60D8629962CEE70120ECE709
:100D3000074E324026693243AFE7C046002C0140DF
:100D400000040040002000400044014000480140F1
:100D5000FFFCFFFF3C23F0B5C35C0400012B00D176
:100D600094E0082A00D170E02BD8002A4ED0042A43
:100D70004AD1102503681A6A186AA84318625D4DA3
:100D80005F68986928400D682D0205432020824342
:100D9000886800011043584A934200D18BE0574ABB
:100DA000934200D18EE0564A934200D18AE04A68CD
:100DB0005F609D619A63186200203C230022E25428
:100DC000F0BD0C2A20D103684E4D186A1A6A2A40D9
:100DD0001A62484D5E68DA692A400D682D02154393
:100DE000494A10408A6812030243434883424FD065
:100DF000424883424CD04248834249D049685E60B1
:100E0000DD6119641A62D7E70120D6E7012503687E
:100E10001A6A186AA84318625E6898697235A8430E
:100E20000D6828430225AA438D682A43324DAB4200
:100E300034D0324DAB4231D0314DAB422ED0496827
:100E40005E60986159631A62B6E703682F4D1A6AAB
:100E5000186A0E68284018625F687535D869FF35D2
:100E6000A84306432A480240886800021043224AE9
:100E700093422FD0214A934233D0214A934230D01B
:100E80004A685F60DE61DA63186295E7022097E7DF
:100E9000204830404E69B6010643AFE70825AA4313
:100EA000CD688F692A430425AA431B4D35404E69FE
:100EB0003E432E43C3E780229043CA681201104389
:100EC00040229043154E4A693E408F691743BF0048
:100ED00037436CE7124A0240C86800021043114AC7
:100EE0001040114D4A693D408F6917433F012F4320
:100EF000C6E7C046FF8CFFFF002C014000440140C4
:100F000000480140FFEFFFFFFFDFFFFFFFFEFFFF95
:100F1000FFFDFFFFFFBFFFFFFFFCFFFFFFF3FFFF32
:100F2000FFF7FFFFFFFBFFFFFFCFFFFF3C2270B586
:100F30000300805C012800D16FE0012402209C5452
:100F4000013298541A684E4D9068284090600868A5
:100F5000602800D17AE00BD8402860D029D820281A
:100F600053D050D8102104008C434ED0012019E0FA
:100F700080246401A04214D08024A401A04231D076
:100F80007028F3D194683F484D6804408868C96868
:100F9000284309020143772021439160916801436E
:100FA000916000203D22012199540021013A995479
:100FB00070BD5028DAD1156A166A4868A643C96818
:100FC0001662F02694690901B44321430A24A5431B
:100FD0002843916110627020916881431938014360
:100FE0009160DEE7946827484D6804408868C968C6
:100FF0002843090201432143916080219068C9017F
:1010000001439160CDE73028B0D170249168A143AD
:101010000143072001439160C3E70220C8E7156A36
:10102000166A4868A643C9681662F02694690901E1
:10103000B44321430A24A5432843916110627020E0
:1010400091688143293801439160AAE71026156A07
:101050004868CC68116A2403B143116291690A4E51
:1010600031400C43A0218D4301017020294394613C
:1010700011629168814309380143916091E7C0464C
:101080008800FFFFFF00FFFFFF0FFFFF7047C04614
:101090007047C0467047C0467047C0467047C0465C
:1010A0000222036870B5DE681D6904002A4201D07F
:1010B00032425AD104232B4201D0334241D108237A
:1010C0002B4201D033422AD110232B4201D033428C
:1010D00014D101232B4201D033425AD180232B4219
:1010E00001D033425DD140232B4201D0334260D145
:1010F00020232B4201D0334243D170BD11222368FB
:1011000052421A6119322277DA69C0239B0020000B
:101110001A4262D0FFF7BEFF00232377D9E70922E6
:10112000236852421A610D322277DB6920009B0747
:1011300050D1FFF7ADFF2000FFF7AEFF002323776C
:10114000C2E70522236852421A61073222779A6960
:10115000C0239B0020001A4239D1FFF799FF2000DD
:10116000FFF79AFF00232377A9E7053A1A610432B3
:1011700002779B699B0724D0FFF78CFF002323771E
:1011800098E721222368524220001A6100F088F873
:10119000B3E702222368524220001A61FFF776FF6C
:1011A0009CE781222368524220001A6100F07AF8FD
:1011B00099E741222368524220001A61FFF76EFF2F
:1011C00096E7FFF765FF2000FFF766FFD6E7FFF71A
:1011D00061FFC7E7FFF75EFFB0E7FFF759FF2000A9
:1011E000FFF75AFF98E7C0463C2330B5C35C012B9C
:1011F0001ED03D2302227025C25403685A689C68A1
:10120000AA430D682A435A600A4A93420AD00A4AFE
:10121000934207D03D230122C2540022013BC25415
:10122000002030BD802294434A6814439C60F1E75B
:101230000220F6E7002C0140000400403C2210B5DB
:10124000835C012B1ED0CB680F4C23408C6823435A
:101250000E4C23404C6823430D4C23400C68234321
:101260000C4C23400C6923430B4C23404C69C96947
:1012700023430A4C23400B4301684B6400238354EF
:10128000002010BD0220FCE7FFFCFFFFFFFBFFFF7B
:10129000FFF7FFFFFFEFFFFFFFDFFFFFFFBFFFFFD6
:1012A0007047C0467047C046F0B5CE46474680B549
:1012B000040083B0002800D1F2E00368DA0735D5D6
:1012C0000C21C34842680A40042A00D101E1426867
:1012D0001140082900D1F8E06368012B0FD0002BE2
:1012E00000D11EE1052B00D1A7E1B94BB9491A681D
:1012F0000A401A601A68B8490A401A6005E080235B
:10130000B34A5B0211680B43136000F0E9FB8026CF
:101310000500AF4FB60205E000F0E2FB401B642879
:1013200000D9FCE03B683342F6D023689A0729D500
:101330000C22A7494868024200D1AAE0486802404E
:10134000082A00D1A1E0E368A14D002B00D11FE1E4
:1013500001222B68022713432B6000F0C1FB06001B
:1013600005E000F0BDFB801B022800D9D7E02B6808
:101370001F42F6D0F8212A6823698A43DB00134311
:101380002B6023681A072DD45A0744D580220020E9
:101390008F4B5205D9698146114208D1D969114351
:1013A000D961DB6913400193019B01239946802792
:1013B0008A4E7F0033683B4200D194E0A368012B42
:1013C00000D1F8E0002B00D1C4E0052B00D140E1B2
:1013D00001217F4B1A6A8A431A621A6A03318A43CF
:1013E0001A62ECE0E3697A4D002B5BD001226B6A54
:1013F000022713436B6200F073FB060005E000F068
:101400006FFB801B022800D989E06B6A1F42F6D06F
:1014100023685A07BAD4DB0612D56369012B00D1C1
:101420003CE1053300D0E9E00421F820684A536B21
:101430008B435363516BA3698143DB000B435363BD
:10144000236A002B1BD00C22614D69680A40082AD0
:1014500000D108E1022B00D13EE12B68604A8026D2
:1014600013402B6000F03CFBB604040004E000F0E5
:1014700037FB001B022852D82B683342F7D10020DB
:1014800003B0C0BCB946B046F0BD4A68D20300D52F
:1014900059E74F4A1268920735D5E268012A32D0DF
:1014A0000120EDE701226B6A022793436B6200F093
:1014B00017FB060004E000F013FB801B02282ED867
:1014C0006B6A1F42F7D12368A3E74268D20300D4B6
:1014D00002E73F4A1268920300D427E76268002AB5
:1014E00000D023E7DCE733683B43336000F0F8FAD1
:1014F000050004E000F0F4FA401B64280FD83368BC
:101500003B42F7D05AE7F825314822690168D200FA
:10151000A9430A4302601A0700D435E762E70320B3
:10152000AEE72B4D2B4A2B68802713402B602B688E
:10153000294ABF0213402B6000F0D2FA060004E0F3
:1015400000F0CEFA801B6428E9D82B683B42F7D123
:101550002368EBE601221E4E224D336A9343336229
:10156000336A03329343336200F0BAFA022307006E
:10157000984604E000F0B4FAC01BA842CFD8424617
:10158000336A1A42F6D14B46012B4FD0236842E70B
:1015900001222B68022793432B6000F0A1FA06007A
:1015A00004E000F09DFA801B0228B8D82B681F4287
:1015B000F7D12368E6E606490A6A13430B6200F096
:1015C0008FFA034B060098460227064D11E0C046ED
:1015D00000100240FFFFFEFFFFFFFBFF0070004016
:1015E000FFFFFFFE8813000000F07AFA801BA8427C
:1015F00095D843461B6A1F42F6D0C4E70422524DD9
:1016000002276B6B13436B636B6B033A93436B6300
:1016100000F066FA060005E000F062FA801B02287E
:1016200000D97CE76B6B1F42F6D109E7464A474970
:10163000D3690B40D3612368EDE68022424BD2028E
:1016400019680A431A608022196852020A431A6014
:101650005BE604213C4B1A6A0A431A621A6A033990
:101660000A431A62ABE7012B00D119E780226B68AD
:10167000616A5202E86A1A408A4200D010E70F22DB
:10168000E16A02408A4200D00AE7F022A06A92038F
:101690001340181A431E9841C0B2F1E604212A4DA6
:1016A00002276A6B0A436A636A6B13436B6300F039
:1016B00017FA060005E000F013FA801B022800D993
:1016C0002DE76B6B1F42F6D0F8216A6BA3698A4342
:1016D000DB0013436B63B3E62B681D4A802713407E
:1016E0002B6000F0FDF9BF04060005E000F0F8F9FA
:1016F000801B022800D912E72B683B42F6D10F224B
:10170000EB6A114E9343E26A1343EB62616AA36A88
:101710006A680B430F490A4013436B6080232A68B1
:101720005B0413432B6000F0DBF980250400AD045B
:1017300005E000F0D5F9001B022800D9EFE6336878
:101740002B42F6D09BE6C04600100240FFFFFFEFA1
:10175000FFFFFFFEFFFFC2FFF8B5CE46474604007D
:101760000D0080B500280DD001234A490A681A40AF
:10177000AA420CD20A689A432A430A600A681340B4
:10178000AB4204D00120C0BCB946B046F8BD2368C6
:101790009A070ED55A0705D5E0223F49D20048687E
:1017A00002434A60F0203C494A688243A0680243F1
:1017B0004A60DB0722D5384B62681B68012A5BD080
:1017C000022A56D09B07DDD50321334E73688B4325
:1017D0001343736000F084F90C2398462F4B0700E5
:1017E000994604E000F07CF9C01B484547D84346C1
:1017F00072681A4063689B009A42F3D10121254A1E
:1018000013680B40AB4205D913688B431360136810
:101810001942B7D123685B0706D51F4A2049536890
:101820000B40E1680B4353600C231B494A6813408B
:10183000082B0ED01B48184B1B4A5B681B491B0624
:101840001B0FD35CD8400860032000F007F900208C
:1018500099E70F251648930C2B40C45CC96AD20344
:101860000FD5144B0D40595D0E48FEF74DFC6043FB
:10187000E1E79B01A8D485E79B03A5D482E7032079
:1018800081E763011B1B9801C01AC0000019000208
:10189000D1E7C0460020024000100240881300003B
:1018A000FFF8FFFF00127A003C690008900000205A
:1018B00020690008106900080C23104970B54A68B7
:1018C0001340082B01D00E4870BD0F250D48930C16
:1018D0002B40C45CC96AD20307D50B4B0D40595D40
:1018E0000748FEF711FC6043EEE76201121B93010B
:1018F0009B1ADB001B191802E6E7C04600100240E5
:1019000000127A002069000810690008044B054A9B
:101910005B6805495B055B0FCB5C1068D84070477E
:10192000001002409000002034690008F0B5CE4657
:10193000474680B50368040083B0DA0330D58022BF
:10194000404B5205D9690027114242D080263E4DB6
:1019500076002B6833424AD03A4DC0232A6A9B0056
:101960001000616818401A4211D00B4083420ED01B
:1019700080202B6A2E6A400230432862286A334A4C
:10198000334E1A40304028622A62DB0746D42D4A83
:101990002E48136A03400B431362012F38D023688B
:1019A000DA0706D5032027490A6B8243A068024361
:1019B0000A639B0605D4002003B0C0BCB946B046FC
:1019C000F0BD10211F4A136B8B43E1680B43136377
:1019D000F1E78026D9691C4D1143D961DB69760096
:1019E00013400193019B2B6801373342B4D12B681C
:1019F00033432B6000F074F880462B683342ABD140
:101A000000F06EF84346C01A6428F6D90320D3E7E5
:101A1000D36910490B40D3612368C1E700F060F837
:101A2000022398460C4B0600994604E000F058F853
:101A3000801B4845EAD842462B6A1A42F6D06168B4
:101A4000A5E7C0460010024000700040FFFCFFFF09
:101A5000FFFFFEFFFFFFFFEF8813000070B50400DB
:101A6000FA200E4B80001978FEF74EFB0C4D01005A
:101A70002868FEF749FB00F005FB00280CD1013077
:101A8000032C00D970BD02380022210000F0C4FAF6
:101A9000044B00201C60F5E70120F3E788000020DC
:101AA000900000208C0000201021064A10B5136819
:101AB00003200B431360FFF7D1FFFEF71BFF00204D
:101AC00010BDC04600200240034A044B11681B7839
:101AD0005B1813607047C0465C040020880000203B
:101AE000014B18687047C0465C04002070B50400C4
:101AF000FFF7F6FF0500631C02D0044B1B78E418C7
:101B0000FFF7EEFF401BA042FAD370BD8800002013
:101B1000F0B5DE4657464E464546E0B50A688B4668
:101B200087B0002A75D090210023C905884200D1D2
:101B3000D2E0D949D94F8C465946029101219940AA
:101B400088461140009141460A425ED0029C5D00E9
:101B500061688B4603215C4621400324AC40E4438A
:101B60004E1E0194012E5BD9032900D073E1A940D8
:101B70000668019C34402143C02401605946A402F8
:101B8000214242D061460124654689690F262143DE
:101B9000A961A96903252140C14C1D40A046AD00A3
:101BA000AE40059105999908890041448C68B44379
:101BB000BC4EB04200D18BE0BB4EB04200D175E0CC
:101BC000BA4EB04200D142E10526AE4034438026F1
:101BD0005D468C60009C7603E443B968354200D0D2
:101BE00073E021405D46B960F968AD026AD42140D6
:101BF0005D46F9607968AD0361D421405D46796046
:101C00003968ED0356D42140396011000133D940C1
:101C100094D107B0F0BCBB46B246A946A046F0BD81
:101C200086682640B246029EF668AE40B1465646E9
:101C30004C4626438660446826004446A6435C46DC
:101C40002409B1462600012426409E40B0464E4657
:101C5000444626434660C4682600019C2640029CF8
:101C6000B146A4682600AE40B0464E4644462643E0
:101C7000C660022900D07AE7DC08A400A0468044B0
:101C80004446266A07241C40A400A14603960F245C
:101C90004E46B440039EA64303964E46029C2469DA
:101CA000B440039E26434446266260E70226AE40C7
:101CB00034438CE7009C0C4321003960A5E7009D6C
:101CC00029439BE7009D294392E7009D294389E72B
:101CD0000126AE4034437AE76F4900238A465946CD
:101CE0000127029148E0032900D0C1E0A94006681D
:101CF000019C34402143C02401605946A402214282
:101D000035D05146544603250F2689691D40394375
:101D1000A161A169624CAD00A446AE405D46394068
:101D2000059105999908890061448C68B4438C60D9
:101D30005A49009C8968E443ED0200D584E02140C3
:101D4000564DA960E9685D46AD027AD42140534DF5
:101D5000E96069685D46AD0370D421404F4D69600C
:101D600029685D46ED0365D421404C4C216011008B
:101D70000133D94000D14CE7390099408C461140DD
:101D8000009161461142F2D002995D0049688B468C
:101D900003215C4621400324AC40E4434E1E0194E1
:101DA000012EA0D886682640029CB146E668AE4067
:101DB000B0464E4644462643866044682600644644
:101DC000A6435C462409B04626003E409E40B446E9
:101DD0004646644626434660C4682600019C264069
:101DE000029CB046A4682600AE40B446464664460F
:101DF0002643C660022900D078E7DC08A400A44688
:101E00009024E405A046C4446446266A07241C4086
:101E1000A400A14603960F244E46B440039EA64359
:101E200003964E46029C2469B440039E26436446B2
:101E300026625BE7009C0C43210096E7009D294346
:101E40008CE7009D294382E7009D294378E703261C
:101E5000AE403443BBE62600C4683440A146029C31
:101E6000A468AC40A0464C4646463443C4607EE677
:101E700026009024E405A046E4683440A146029C74
:101E8000A468AC40A4464C4666463443A446444647
:101E90006646E6602AE7C0460010024000040140A2
:101EA000000001400004004800080048000C004801
:101EB000002A01D0816170478162FCE770B5041E81
:101EC00027D02125022343550068134B0268A168DF
:101ED0001A4063680B43E1680B4321690B43616956
:101EE0000B43A1690B43E1690B43134303600B4BA5
:101EF00014219C466044FEF707F9094B0122E36375
:101F00000023800020640020A36362551F32A35485
:101F100070BD0120FCE7C0460FC0FFFFF8FFFDBF0A
:101F200000000240F0B52024055D012D08D00125F8
:101F300021270555C55DEEB2012D03D000230355C1
:101F40000220F0BD1E3CC455002484630468076C65
:101F50002568B543BE402560C56B6E60636043680D
:101F6000102B07D0A160E2600122236800201343F8
:101F70002360E6E7A260E160F6E7C0460421F8B519
:101F80000C00036CC76B9C403A68066835682242B7
:101F90000DD029420BD033689B0602D433688B43A3
:101FA0003360C36A7C60002B00D09847F8BD0221E3
:101FB0000C009C40224214D0294212D033689B0668
:101FC00006D40A223368934333602123093AC2546A
:101FD000202300227C60C254836A002BE6D09847FD
:101FE000E4E708210C009C402242DFD02942DDD0EA
:101FF000326806318A433260012211009940212360
:1020000079608263C2540022013BC254036B002BEF
:10201000CCD09847CAE7C046FF22032310B514006E
:102020000340DB009C4089010A40E4439A400028B9
:102030000BDB0C4BC0219C4680088000604489006B
:10204000435823401343435010BD0F230649034018
:102050008C46083B9B089B006344D9690C401443A1
:10206000DC61F1E700E100E000ED00E0002805DBC5
:102070001F22012302409340014A13607047C0466B
:1020800000E100E08022431E5204012093420ED260
:10209000C021074A07485360036A09061B021B0A4E
:1020A0000B430362002300209360073313607047E3
:1020B00010E000E000ED00E0436A30B51A0706D5F5
:1020C0000168284C4A682240446B22434A60DA0780
:1020D00006D50168244C4A682240846A22434A603B
:1020E0009A0706D50168214C4A682240C46A2243F7
:1020F0004A605A0706D501681D4C4A682240046BA5
:1021000022434A60DA0606D501681A4C8A682240E2
:10211000846B22438A609A0606D50168164C8A6849
:102120002240C46B22438A605A060AD50168134DC7
:102130004A68046C2A4022434A6080225203944237
:1021400009D01B0606D502680D4953680B40816C07
:102150000B43536030BD4A680A4C2240446C224312
:102160004A60EEE7FF7FFFFFFFFFFDFFFFFFFEFF7F
:10217000FFFFFBFFFFEFFFFFFFDFFFFFFFFFEFFFB3
:10218000FFFFF7FFFFFF9FFFF0B584230022C64645
:10219000040000B5C250FFF7A3FC236805001A68CD
:1021A000120710D41A6852073CD420238022E36718
:1021B000A350002300202366636678230022E254A4
:1021C00080BCB846F0BDDA699202EBD480260823C1
:1021D00004279846B60410E023681A68174209D00D
:1021E0004146DA69114258D18022D969120111425F
:1021F00000D083E0DA699202D4D4FFF771FC401B6F
:10220000B042E9D3EFF31081012383F310888020DB
:10221000226813688343136081F31088202303200E
:10222000E367CAE7DB695B02BFD480260823042783
:102230009846B60411E023681A6817420AD041464E
:10224000DA69114200D089E08022D9691201114275
:1022500000D0B4E0DB695B02A7D4FFF741FC401B70
:10226000B042E8D3EFF31080012282F31088216896
:102270006B4D0B682B400B6080F31088EFF31080E0
:1022800082F3108821688B6893438B6080F31088F9
:1022900080231F320320E2508FE71962EFF3108092
:1022A000012282F3108821685D4D0B682B400B6082
:1022B00080F31088EFF3108082F3108821688B6818
:1022C00093438B6080F31088236E012B0AD1EFF3C8
:1022D000108183F3108810202268136883431360F1
:1022E00081F31088802320220821E25000236432E9
:1022F0002366A366A1500C3AA35483E71A62EFF356
:102300001080012282F310882168454D0B682B4014
:102310000B6080F31088EFF3108082F3108821683F
:102320008B6893438B6080F31088236E012B0AD156
:10233000EFF3108183F31088102022681368834321
:10234000136081F31088202280238421E25000232F
:102350002366A36662505832A35453E71962EFF321
:102360001080012282F3108821682D4D0B682B40CC
:102370000B6080F31088EFF3108082F310882168DF
:102380008B6893438B6080F31088236E012B0AD1F6
:10239000EFF3108183F310881020226813688343C1
:1023A000136081F31088802320220821E25000234B
:1023B00064322366A366A1500C3AA35452E71A6212
:1023C000EFF31080012282F310882168144D0B680E
:1023D0002B400B6080F31088EFF3108082F310889D
:1023E00021688B6893438B6080F31088236E012BE8
:1023F0000AD1EFF3108183F310881020226813684C
:102400008343136081F31088202280238421E250CB
:1024100000232366A36662505832A35422E7C046C5
:10242000DFFEFFFF70B5041E68D0C36F002B67D0BE
:10243000242301222568E3672B6893432B60636A9A
:10244000002B62D12069A368296803436069E269AF
:1024500003434948134301400B432B606B684749D2
:10246000206A0B40E1680B436B60A369A9680343D2
:10247000434801400B43AB60424B196B03230B40B5
:10248000013B022B26D980231B029A424ED0FFF734
:102490003DFA00283DD061684B081818FDF734FE5E
:1024A0000200394B103A9A4225D800222368D8609E
:1024B000A266E2665A68354920000A4008215A603F
:1024C0009A688A439A601A6807390A431A60FFF7C4
:1024D0005BFE14E080202E490002CB5C82421CD0BF
:1024E000042B3DD005D8002BD1D0022B03D1294895
:1024F000D1E7082BCFD00023A366E366012070BD8F
:1025000078228354FEF7D0FA92E72000FFF7D4FD3B
:1025100098E72368A066E066CCE7042B23D025D893
:10252000002B03D0022BE6D11B4804E0FFF7EEF9A5
:102530000028EED0400061684B081818FDF7E4FD54
:102540000200114B103A9A42D5D8144A236802402F
:102550000007400F0243DA600022A266E266A9E7A4
:10256000FFF7AAF995E7FFF7A7F9E1E7082BC2D132
:1025700080204002DFE7C046F369FFFFFFCFFFFF87
:10258000FFF4FFFF00100240EFFF0000FFF7FFFF26
:102590003069000800127A000024F400F0FF000007
:1025A0007047C0460D488546FFF7FAFF0C480D49B5
:1025B0000D4A002302E0D458C4500433C4188C429E
:1025C000F9D30A4A0A4C002301E013600432A24204
:1025D000FBD3FDF72DFEFDF795FFFEE70010002071
:1025E000000000209400002054690008940000209E
:1025F00060040020FEE70000F8B5C046F8BC08BC47
:102600009E467047F8B5C046F8BC08BC9E46704769
:102610000FFF87FF07FF07FE03FE03FE03FE03FF16
:1026200003FF83F883F887F803FC07FC03FC01FC35
:102630000FFF87FF07FF07FE03FE03FE03FE03FFF6
:1026400003FF83F883F887F803FC07FC07FC01FC11
:102650000FFF87FF07FF07FE03FE03FE03FE03FFD6
:1026600003FF83F983F887F803FC07FC07FC01FCF0
:102670000FFF87FF07FF07FE03FE03FE03FE03FFB6
:1026800003FFC3F943F987F803F807FC07FC01FCD3
:102690000FFF07FF07FF07FE03FE03FE03FE03FF16
:1026A00003FFC3FD43F987F803F807FC07FC05FCAB
:1026B0000FFF07FF07FF07FE03FE03FE03FE03FFF6
:1026C00003FF43F943F987F903F807FC07FC07FC0C
:1026D0000FFF07FF07FF07FE03FE03FE03FE03FFD6
:1026E00003FF43FF43F987F903F807F807FC07FCEA
:1026F0000FFE07FF07FF07FE03FE03FE03FE03FFB7
:1027000003FF03FF43F987F983F887F807FC07FC09
:102710000FFE07FF07FE07FE03FE03FE03FE03FF97
:1027200003FF03FF47F987F983F987F807FC07FCE4
:102730000FFE07FE07FE07FE03FE03FE03FE03FF78
:1027400003FF03FF47FB87F183F187F807FC07FCD2
:102750000FFE07FE07FE07FE03FE03FE03FE03FF58
:1027600003FF03FF03FF87F383F187F007F807FCFC
:102770000FFC0FFE07FE07FE03FC03FC03FE03FF36
:1027800003FF03FF03FF87FB83F387F107F007F8DD
:102790000FFC0FFC07FE07FC07FC03FC03FC03FF18
:1027A00003FF03FF07FF87FF83F387E383E103F062
:1027B0000FFC0FFC07FE07FC07FC03FC03FC03FFF8
:1027C00003FF03FF07FF07FF83FF83E783E303E0C4
:1027D0001FF80FFC07FE07FC07FC07FC03FC03FEC9
:1027E00003FF03FF07FF07FF83FF83F783E707E08C
:1027F0001FF80FF80FFC07FC07FC07FC03FC03FEA7
:1028000003FF03FF07FF03FF03FF83FF87E781E762
:102810001FF80FF80FFC07FC07FC07FC07FC03FE82
:1028200003FF03FF07FF03FF03FF87FF81FF81E72C
:102830001FF90FF80FF807FC07FC07FC07FC03FC67
:1028400003FF03FF03FF03FF03FF01FF81FF81FF7E
:102850009FFF0FF80FF807FC07FC07FC07FC03FCC1
:1028600003FF83FF83FF83FF83FF81FF81FF83FFDC
:102870009FFF0FF80FF807FC07FC07FC07FC03FCA1
:1028800003FE03FF83FFC3FE83FF81FF81FF81FF00
:10289000FFFF0FFC0FF807FC07FC07FC07FC03FC1D
:1028A00003FE03FF83FFC3FEC3FF83FF81FF81FF9E
:1028B000FFFF8FFE0FFC07FC07FE07FC07FC03FC75
:1028C00003FE03FF03FFC3FEC3FEC1FFC1FFC1FF41
:1028D000FFFFCFFF07FC07FC07FE03FE03FE03FE1E
:1028E00003FE03FF03FF03FFE1FEC1FFC1FFC0FFC3
:1028F000FFFFEFFF07FE07FE03FE03FE03FE03FEDE
:1029000003FE03FF03FF23FF61FFE1FFC1FFC0FFE1
:10291000FFFFFFFF07FF03FF03FF03FF03FE03FEAD
:1029200001FE81FF81FF21FF61FF61FFE0FFC0FF2A
:10293000FFFFFFFF87FF03FF83FF01FF01FF01FF91
:1029400001FF81FF81FF81FF21FF60FF60FFE0FF4A
:10295000FFFFFFFFCBFF81FF81FF81FF01FF01FF31
:1029600001FF81FFC1FF81FFB1FFB0FF60FFE0FF0A
:10297000FFFFFFFFC7FFC1FF81FF80FF80FF80FFD8
:1029800080FFC0FFC0FFC0FF90FFB0FFF0FFE0FF7F
:10299000FFFFF7FFE1FFE0FFC0FF80FF80FF80FF48
:1029A000C0FFC0FFC0FFD0FFD0FFD0FFF0FFF0FF9F
:1029B000FFFFF3FFF0FFE0FFC0FFC0FFC0FFC0FF5D
:1029C000C0FFE0FFE0FFE0FFE0FFF0FFF0FFF0FFFF
:1029D000F9FFF8FFF0FFE0FFC0FFC0FFC0FFE0FF1E
:1029E000E0FFE0FFE0FFE0FFF8FFF8FFF8FFF0FF97
:1029F000FCFFF8FFF0FFE0FFE0FFE0FFE0FFE0FF9B
:102A0000F0FFF0FFF8FFF8FFF8FFF8FFF8FFF8FF1E
:102A1000FEFFF8FFF0FFF0FFE0FFE0FFF0FFF0FF48
:102A2000F0FFF0FFF0FFF8FFF8FFF8FFF8FFF8FF06
:102A3000FFFFF8FFF0FFF0FFF0FFF0FFF0FFF0FF07
:102A4000F8FFFCFFF8FFF8FFF8FFF8FFF0FFF8FFD2
:102A5000FFFFFCFFF8FFF8FFF8FFF8FFF8FFF8FFB3
:102A6000F8FFF8FFF8FFF8FFF8FFF0FFE0FFE0FFE6
:102A7000FFFFFCFFFCFFF8FFF8FFF8FFF8FFFCFF8B
:102A8000FEFFF8FFF8FFF0FFE0FFC0FF80FF00FF50
:102A9000FFFFFEFFFCFFFCFFFCFFFCFFFCFFFCFF59
:102AA000FCFFF0FFC0FF00FF00EC00C400C000E02E
:102AB000FFFFFEFFFCFFFCFFFCFFFCFFFCFFFCCF69
:102AC000FCC500C000C000C010E810F810F800F805
:102AD000FFFFFEE7FCE7FCC7FCE1F8E078C00CF87C
:102AE00004F000F020E030E020E020E020E060FE94
:102AF0007FE07FF03EFE3CFC1CF818F008E000E0B0
:102B000004E030E030F070F870FEE0FFE0FFE0FF3E
:102B10003FFFBFFF1FFF1FE01EE01CE00CF00CF0AA
:102B200000F800F820FC78FCF0FFF0FFF0FFF0FF69
:102B3000DFFFCFFFCFFFCFF9CFF90FF80FFC0EFC6F
:102B40000EFC0EFC04FC00FC00FC00FEF8FFF8FF8D
:102B5000FFFFFFFFFFFFFFFFF7FF77FF27FF27FFC5
:102B600027FF07FE0FFE06FE06FE06FE00FE00FE25
:102B7000FFFFFFFFFFFFFFFFFFFFFFFFFFFFFFFF65
:102B8000FBFFC3FFC7FF87FF87FF87FF07FF07FF25
:102B9000FFFFFFFFFFFFFFFFFFFFFFFFFFFFFFFF45
:102BA000FFFFFFFFFFFFFFFFF9FFF1FFF3FFE3FF71
:102BB000FFFFFFFFFFFFFFFFFFFFFFFFFFFFFFFF25
:102BC000FFFFFFFFFFFFFFFFFFFFFFFFFFFFFFFF15
:102BD000FFFFFFFFFFFFFFFFFFFFFFFFFFFFFFFF05
:102BE000FFFFFFFFFFFFFFFFFFFFFFFFFFFFFFFFF5
:102BF000FFFCFFFFFFFFFFFFFFFFFFFFFFFFFFFFE8
:102C0000FFFFFFFFFFFFFFFFFFFFFFFFFFFFFFFFD4
:102C1000FFFCFFFCFFFFFFFFFFFFFFFFFFFFFFFFCA
:102C2000FFFFFFFFFFFFFFFFFFFFFFFFFFFFFFFFB4
:102C30007FFCFFFCFFFFFFFFFFFFFFFFFFFFFFFF2A
:102C4000FFFFFFFFFFFFFFFFFFFFFFFFFFFFFFFF94
:102C50007FFC7FFCFFFCFFFFFFFFFFFFFFFFFFFF8D
:102C6000FFFFFFFFFFFFFFFFFFFFFFFFFFFFFFFF74
:102C70007FFC7FFC7FFC7FFEFFFFFFFFFFFFFFFF6E
:102C8000FFFFFFFFFFFFFFFFFFFFFFFFFFFFFFFF54
:102C9000FFFE7FFC7FFC7FFC7FFEFFFFFFFFFFFF4F
:102CA000FFFFFFFFFFFFFFFFFFFFFFFFFFFFFFFF34
:102CB000FFFF7FFE7FFC7FFC7FFCFFFFFFFFFFFF2E
:102CC000FFFFFFFFFFFFFFFFFFFFFFFFFFFFFFFF14
:102CD000FFFFFFFF7FFC3FFC3FFC7FFEFFFFFFFF8E
:102CE000FFFFFFFFFFFFFFFFFFFFFFFFFFFFFFFFF4
:102CF000FFFFFFFF7FFE3FFC3FFC3FFC7FFEFFFF2F
:102D0000FFFFFFFFFFFFFFFFFFFFFFFFFFFFFFFFD3
:102D1000FFFFFFFFFFFF7FFE3FFC3FFC7FFE7FFFCB
:102D2000FFFFFFFFFFFFFFFFFFFFFFFFFFFFFFFFB3
:102D3000FFFFFFFFFFFF7FFE3FFE3FFC3FFC7FFEEC
:102D4000FFFFFFFFFFFFFFFFFFFFFFFFFFFFFFFF93
:102D5000FFFFFFFFFFFFFFFF3FFE3FFC3FFC3FFE8B
:102D60007FFEFFFFFFFFFFFFFFFFFFFFFFFFFFFFF4
:102D7000FFFFFFFFFFFFFFFF7FFF3FFE3FFC3FFC2A
:102D80003FFE7FFFFFFFFFFFFFFFFFFFFFFFFFFF94
:102D9000FFFFFFFFFFFFFFFFFFFF3FFE3FFE3FFE86
:102DA0003FFE7FFEFFFFFFFFFFFFFFFFFFFFFFFF75
:102DB000FFFFFFFFFFFFFFFFFFFF7FFF3FFC3FFE27
:102DC0003FFE3FFEFFFFFFFFFFFFFFFFFFFFFFFF95
:102DD000FFFFFFFFFFFFFFFFFFFFFFFF3FFE3FFC87
:102DE0003FFE3FFE3FFEFFFFFFFFFFFFFFFFFFFF36
:102DF000FFFFFFFFFFFFFFFFFFFFFFFF7FFE3FFE25
:102E00001FFE1FFE3FFEFFFFFFFFFFFFFFFFFFFF55
:102E1000FFFFFFFFFFFFFFFFFFFFFFFFFFFF3FFE83
:102E20001FFE1FFE3FFE3FFFFFFFFFFFFFFFFFFFF5
:102E3000FFFFFFFFFFFFFFFFFFFFFFFFFFFF3FFF62
:102E40001FFE1FFE1FFE3FFFFFFFFFFFFFFFFFFFF5
:102E5000FFFFFFFFFFFFFFFFFFFFFFFFFFFF3FFF42
:102E60001FFE1FFE1FFE3FFE3FFEFFFFFFFFFFFF97
:102E7000FFFFFFFFFFFFFFFFFFFFFFFFFFFFFFFF62
:102E80003FFE1FFE1FFE1FFE3FFFFFFFFFFFFFFF76
:102E9000FFFFFFFFFFFFFFFFFFFFFFFFFFFFFFFF42
:102EA0003FFF1FFE1FFE1FFE3FFEFFFFFFFFFFFF56
:102EB000FFFFFFFFFFFFFFFFFFFFFFFFFFFFFFFF22
:102EC0003FFF3FFE1FFE1FFE3FFE3FFFFFFFFFFFD6
:102ED000FFFFFFFFFFFFFFFFFFFFFFFFFFFFFFFF02
:102EE0007FFF3FFE1FFE1FFE3FFE7FFFFFFFFFFF36
:102EF000FFFFFFFFFFFFFFFFFFFFFFFFFFFFFFFFE2
:102F00007FFF3FFE1FFE1FFE3FFE1FFFFFFFFFFF75
:102F1000FFFFFFFFFFFFFFFFFFFFFFFFFFFFFFFFC1
:102F2000FFFF3FFE1FFE1FFE1FFE3FFFFFFFFFFFD5
:102F3000FFFFFFFFFFFFFFFFFFFFFFFFFFFFFFFFA1
:102F4000FFFF1FFE1FFE1FFE1FFE3FFFFFFFFFFFD5
:102F5000FFFFFFFFFFFFFFFFFFFFFFFFFFFFFFFF81
:102F6000BFFF3FFE1FFE1FFE1FFE3FFFFFFFFFFFD5
:102F7000FFFFFFFFFFFFFFFFFFFFFFFFFFFFFFFF61
:102F80003FFF1FFE1FFE1FFE1FFE3FFFFFFFFFFF55
:102F9000FFFFFFFFFFFFFFFFFFFFFFFFFFFFFFFF41
:102FA0003FFF3FFE1FFE1FFE1FFE3FFFFFFFFFFF15
:102FB000FFFFFFFFFFFFFFFFFFFFFFFFFFFFFFFF21
:102FC0003FFE1FFE1FFE1FFE3FFE7FFFFFFFFFFFB6
:102FD000FFFFFFFFFFFFFFFFFFFFFFFFFFFFFFFF01
:102FE0003FFE1FFE1FFE1FFE3FFEFFFFFFFFFFFF16
:102FF000FFFFFFFFFFFFFFFFFFFFFFFFFFFF3FFFA1
:103000001FFE1FFE1FFE1FFE3FFEFFFFFFFFFFFF15
:10301000FFFFFFFFFFFFFFFFFFFFFFFFFFFF3FFF80
:103020001FFE1FFE1FFE1FFE7FFFFFFFFFFFFFFFB4
:10303000FFFFFFFFFFFFFFFFFFFFFFFF7FFF3FFEE1
:103040001FFE1FFC1FFE3FFEFFFFFFFFFFFFFFFFF6
:10305000FFFFFFFFFFFFFFFFFFFFFFFF3FFF3FFC03
:103060001FFE1FFC3FFE3FFFFFFFFFFFFFFFFFFFB5
:10307000FFFFFFFFFFFFFFFFFFFFFFFF3FFE1FFE02
:103080001FFE1FFE3FFEFFFFFFFFFFFFFFFFFFFFD3
:10309000FFFFFFFFFFFFFFFFFFFF7FFF3FFE1FFE62
:1030A0001FFC1FFE3FFEFFFFFFFFFFFFFFFFFFFFB5
:1030B000FFFFFFFFFFFFFFFFFFFF3FFE3FFC1FFC87
:1030C0001FFE3FFE7FFEFFFFFFFFFFFFFFFFFFFF33
:1030D000FFFFFFFFFFFFFFFFFFFF3FFE1FFC1FFC87
:1030E0001FFE3FFC7FFFFFFFFFFFFFFFFFFFFFFF14
:1030F000FFFFFFFFFFFFFFFF7FFF3FFE1FFC1FFCE7
:103100003FFE3FFEFFFFFFFFFFFFFFFFFFFFFFFF51
:10311000FFFFFFFFFFFFFFFF3FFE3FFE1FFC1FFC07
:103120003FFC3FFFFFFFFFFFFFFFFFFFFFFFFFFF32
:10313000FFFFFFFFFFFFFFFF3FFE3FFE1FFC1FFCE7
:103140003FFC7FFFFFFFFFFFFFFFFFFFFFFFFFFFD2
:10315000FFFFFFFFFFFFFFFF3FFE3FFC1FFC1FFCC9
:103160003FFEFFFFFFFFFFFFFFFFFFFFFFFFFFFF30
:10317000FFFFFFFFFFFF7FFF3FFE3FFC1FFC1FFC29
:103180003FFEBFFEFFFFFFFFFFFFFFFFFFFFFFFF51
:10319000FFFFFFFFFFFFFFFF3FFE1FFC1FFC3FFC89
:1031A0003FFE7FFFFFFFFFFFFFFFFFFFFFFFFFFF70
:1031B000FFFFFFFFFFFFFFFF3FFE1FFC1FFC3FFC69
:1031C0003FFE7FFFFFFFFFFFFFFFFFFFFFFFFFFF50
:1031D000FFFFFFFFFFFFFFFF3FFE3FFC3FFC3FFC09
:1031E0003FFE3FFFFFFFFFFFFFFFFFFFFFFFFFFF70
:1031F000FFFFFFFFFFFFFFFF3FFE3FFC1FFC1FFC29
:103200003FFE7FFFFFFFFFFFFFFFFFFFFFFFFFFF0F
:10321000FFFFFFFFFFFFFFFF3FFE1FFC1FFC1FFC28
:103220001FFE7FFEFFFFFFFFFFFFFFFFFFFFFFFF10
:10323000FFFFFFFFFFFFFFFF1FFE3FFE1FFC1FFC06
:103240001FFE3FFEFFFFFFFFFFFFFFFFFFFFFFFF30
:10325000FFFFFFFFFFFFFFFF3FFE1FFE1FFC1FFCE6
:103260001FFE3FFEFFFFFFFFFFFFFFFFFFFFFFFF10
:10327000FFFFFFFFFFFFFFFF3FFE1FFE1FFC1FFCC6
:103280001FFE3FFEFFFFFFFFFFFFFFFFFFFFFFFFF0
:10329000FFFFFFFFFFFFFFFFFFFF1FFE1FFC1FFEE3
:1032A0001FFE3FFEFFFFFFFFFFFFFFFFFFFFFFFFD0
:1032B000FFFFFFFFFFFFFFFF3FFF1FFE1FFC1FFC85
:1032C0001FFE1FFE7FFFFFFFFFFFFFFFFFFFFFFF50
:1032D000FFFFFFFFFFFFFFFFBFFF1FFE1FFE1FFCE3
:1032E0001FFE1FFE7FFFFFFFFFFFFFFFFFFFFFFF30
:1032F000FFFFFFFFFFFFFFFFBFFF1FFE1FFE1FFCC3
:103300001FFE1FFE3FFFFFFFFFFFFFFFFFFFFFFF4F
:10331000FFFFFFFFFFFFFFFFFFFF1FFF1FFE0FFE6F
:103320001FFE1FFE3FFFFFFFFFFFFFFFFFFFFFFF2F
:10333000FFFFFFFFFFFFFFFFFFFF3FFF1FFE0FFE2F
:103340001FFE1FFE1FFFFFFFFFFFFFFFFFFFFFFF2F
:10335000FFFFFFFFFFFFFFFFFFFF3FFF1FFE0FFE0F
:103360000FFE1FFE1FFEFFFFFFFFFFFFFFFFFFFF20
:10337000FFFFFFFFFFFFFFFFFFFF3FFF1FFE0FFEEF
:103380000FFE1FFE1FFEFFFFFFFFFFFFFFFFFFFF00
:10339000FFFFFFFFFFFFFFFFFFFF1FFF1FFE0FFEEF
:1033A0000FFE1FFE1FFE3FFFFFFFFFFFFFFFFFFFA0
:1033B000FFFFFFFFFFFFFFFFFFFFBFFF1FFE0FFE2F
:1033C0000FFE1FFE1FFE3FFFFFFFFFFFFFFFFFFF80
:1033D000FFFFFFFFFFFFFFFFFFFFBFFF1FFF0FFE0E
:1033E0000FFE0FFE1FFE3FFFFFFFFFFFFFFFFFFF70
:1033F000FFFFFFFFFFFFFFFFFFFFBFFF1FFF0FFEEE
:103400000FFE0FFE1FFE1FFFFFFFFFFFFFFFFFFF6F
:10341000FFFFFFFFFFFFFFFFFFFFFFFF1FFF1FFE7D
:103420000FFE0FFE1FFE1FFFFFFFFFFFFFFFFFFF4F
:10343000FFFFFFFFFFFFFFFFFFFFFFFF1FFE1FFE5E
:103440000FFE0FFE1FFE3FFFFFFFFFFFFFFFFFFF0F
:10345000FFFFFFFFFFFFFFFFFFFFBFFF1FFF1FFE7D
:103460000FFE0FFE1FFE3FFFFFFFFFFFFFFFFFFFEF
:10347000FFFFFFFFFFFFFFFFFFFFFFFF1FFE1FFE1E
:103480000FFE0FFE1FFE3FFFFFFFFFFFFFFFFFFFCF
:10349000FFFFFFFFFFFFFFFFFFFFFFFF1FFE1FFEFE
:1034A0000FFE1FFE1FFE3FFFFFFFFFFFFFFFFFFF9F
:1034B000FFFFFFFFFFFFFFFFFFFFFFFF1FFE1FFEDE
:1034C0001FFE1FFE1FFE3FFFFFFFFFFFFFFFFFFF6F
:1034D000FFFFFFFFFFFFFFFFFFFFFFFF1FFF1FFEBD
:1034E0001FFE1FFE1FFE1FFFFFFFFFFFFFFFFFFF6F
:1034F000FFFFFFFFFFFFFFFFFFFFFFFF1FFF1FFE9D
:103500001FFE1FFE1FFE3FFFFFFFFFFFFFFFFFFF2E
:10351000FEFFFFFFFFFFFFFFFFFFFFFF1FFE1FFE7E
:103520001FFE1FFE1FFE3FFEFFFFFFFFFFFFFFFF0F
:1035300000F8FFFFFFFFFFFFFFFFFFFF3FFE1FFE43
:103540001FFE1FFE1FFE3FFEFFFFFFFFFFFFFFFFEF
:10355000000000C0FCFFFCFFFEFFFFFF3FFE1FFE60
:103560001FFC1FFE1FFE3FFEFFFFFFFFFFFFFFFFD1
:1035700000000000C07F80FF80FFFCFF3EFF1EFCBC
:103580001EFC1FFC1FFE3FFEFFFFFFFFFFFFFFFFB4
:10359000000000FE00FE00FFE0FFE1FF20FF10FE44
:1035A00010FC10FC18FE38FEFCFFFFFFFFFFFFFFC2
:1035B000FF00FF01FF018F0087008600C201C001EC
:1035C000E003E003E001E000000000000000000074
:1035D000FF00FF01FF018F0087008600C201C001CC
:1035E000E003E003E001E000000000000000000054
:1035F000FF00FF01FF018F0087008600C201C001AC
:10360000E003E003E001E000000000000000000033
:10361000FF00FF01FF018F0087008600C201C0018B
:10362000E003E003E001E000000000000000000013
:10363000FF00FF01FF018F0087008600C201C0016B
:10364000E003E003E001E0000000000000000000F3
:10365000FF00FF01FF018F0087008600C201C0014B
:10366000E003E003E001E0000000000000000000D3
:10367000FF00FF01FF018F0087008600C201C0012B
:10368000E003E003E001E0000000000000000000B3
:10369000FF00FF01FF018F0087008600C201C0010B
:1036A000E003E003E001E000000000000000000093
:1036B000FF00FF01FF018F0087008600C201C001EB
:1036C000E003E003E001E000000000000000000073
:1036D000FF00FF01FF018F0087008600C201C001CB
:1036E000E003E003E001E000000000000000000053
:1036F000FF00FF01FF018F0087008600C201C001AB
:10370000E003E003E001E000000000000000000032
:10371000FF00FF01FF018F0087008600C201C0018A
:10372000E003E003E001E000000000000000000012
:10373000FF00FF01FF018F0087008600C201C0016A
:10374000E003E003E001E0000000000000000000F2
:10375000FF00FF01FF018F0087008600C201C0014A
:10376000E003E003E001E0000000000000000000D2
:10377000FF3FFF07FF07FF03FE03FC07F807D00723
:10378000C007C007C00300010000000000000000E7
:10379000FFFFFF3FFF1FFF0FFC1FF83FF07E207E63
:1037A000107E003E001C0000000000000000000031
:1037B000FF7FFFFFFFFFFF1FFB1FF9FFF0FB60F81C
:1037C00010F800F800F800200000000000000000E1
:1037D000FF6FFFFFFFFFFFFFFF7FFF7FF77FF0E03F
:1037E000C0E000E000E000C00000000000000000B9
:1037F000C4FFEDBFFF9FFFFFFFFFFFFFFFFFFF7F46
:10380000070D0001000000000000000000000000A3
:1038100080FF88FF80FFBFFFFFFFFFFFFFFFFFFF6D
:10382000FFFF1FFE01020002000000000000000078
:1038300000CC00EE00FE00FE07FFFFFFFFFFFFFFD2
:10384000FFFFFFFF7FFC0F040004000000000000EA
:1038500000080098009800FC00FC0FFC7FFEFFFFB2
:10386000FFFFFFFFFFFFFFFF1F0801080000000030
:10387000000000100030003000F000F11EFFFFFCDF
:10388000FFFFFFFFFFFFFFFFFFFF1F3C02100000D5
:103890000000000000200060006000F000F87CF8EC
:1038A000FEFFFEFFFFFFFFFFFFFFFEF80E300200EE
:1038B00000800000004000E000E000E000B070F098
:1038C000FCFFFCFFFEFFFFFFFFFFFFFB3870002047
:1038D00000800000004000C000C000C000A070F4E4
:1038E000F8FFFCFFFEFFFEFFFEFFFEF378F0004056
:1038F00000000080004000C000C000E000B020D404
:10390000F8FFFCFFFEFFFEFFFFFFFFF378F004402F
:10391000008000800080006000E000E000F000E82F
:10392000FCFFFCFFFEFFFFFFFFFFFFFBFDF00C2095
:1039300000C000C000E000E0007000F000F800EC03
:103940007CF7FEFFFFFFFFFFFFFFFFFFFFF816788A
:1039500000C000E000E000F000B800F800F800FE51
:103960001CFCFFFDFFFFFFFFFFFFFFFFFFFC1FFC35
:1039700000E000F800F800FC00FC00FC00FC00FE89
:1039800000FEFFFEFFFFFFFFFFFFFFFFFFFF3FFE09
:1039900000FC00FE00FC00FE00F600FE00FE00FE43
:1039A000E07F477EFF7FFFFFFFFFFFFFFFFFBFFFBF
:1039B00000FF00FF00FF00FE00FD00FF80FB80FF16
:1039C000C0FF709FDFBFFFFFFFFFFFFFFFFFFFFF95
:1039D00080FFC03F603F807F007FC07FC07FC0FF0F
:1039E000C0FFF8EFE74FFFDFFFFFFFFFFF7FFF7F25
:1039F000F03FF81FC00FA01FC01F609F709FF0DF37
:103A0000F07FF837FF17FF27FF6FFFFFFFFFFF3F34
:103A1000FC1FFE0FF007C007E0C7A0C7B0EFFC77A0
:103A2000FC1FFC1FFF0DF91BFF13FFB7FFFFFF1F5C
:103A3000FE07FF07FA03FC03F033E073E873EE1BA5
:103A4000FE0FFE07FF06FE04FF0DFF09FFFFFFFF4D
:103A5000FE03FF03FE03FE00FD18FC39F419F50D0B
:103A6000F707FF03FF017F027F02FF04FF8DFFFFC7
:103A7000FF03FF01FF01FF00FF0CFC0CF80CFA0E26
:103A8000FB03FF01FF00BF013F017F02FF02FFFFB9
:103A9000FF03FF01FF007F007F047E067E0EF80615
:103AA0007F01FF01FF009F009F003F013F017FC397
:103AB000FF03FF01FF00FF003F007D067E067C073D
:103AC000FD01FD007F005F009F009F003F017F031D
:103AD000FF03FF01FF007F003F003F033E077F031E
:103AE000FD01FF007F007F004F00CF009F00BF015E
:103AF000FF03FF01FF007F003F001F033F033F0361
:103B0000BE01FE007F002F006F004F00CF009F001E
:103B1000FF03FF01FF007F001F001F011F033F0382
:103B2000BE01FE007F003F002F0067004F00CF0066
:103B3000FF03FF01FF007F003F001F019F039F0362
:103B4000BF01FF007F003F003F00270067004F00DC
:103B5000FF03FF01FF007F003F001F009F019F0345
:103B60009F01FF007F003F003F00270067004700E4
:103B7000FF03FF01FF007F003F003F009F019F0305
:103B80009F01FF005F007F003F00370027006700B4
:103B9000FF03FF01FF007F003F003F009F019F03E5
:103BA0009F01DF007F007F003F003F0027002700CC
:103BB000FF03FF03FF017F007F003F009F019F0382
:103BC0009F03DF017F007F003F003F003700270099
:103BD000FF07FF03FF01FF007F003F009F018F03EE
:103BE0009F039F017F005F007F003F003F00270091
:103BF000FF07FF07FF01FF017F003F00BF019F0399
:103C00009F039F01DF007F007F007F003F002700B0
:103C1000FE0FFF07FF03FF017F007F003F019F03AF
:103C20009F039F01DF007F007F007F007F003F0038
:103C3000FF0FFF07FF03FF01FF007F003F019F030E
:103C40009F039F03DF007F007F007F007F007F00D6
:103C5000FF0FFF07FF03FF01FF007F007F00BF0191
:103C60009F039F039F007F007F007F007F007F00F6
:103C7000FF0FFF07FF03FF01FF007F007F00BF0171
:103C80009F039F039F01FF007F007F007F007F0055
:103C9000FF0FFF07FF03FF01FF007F007F00BF0151
:103CA0009F039F039F017F007F007F007F007F00B5
:103CB000FF07FF07FF03FF01FF007F007F00BF0139
:103CC0009F039F039F015F007F007F007F007F00B5
:103CD000FF07FF07FF03FF01FF007F007F00BF0119
:103CE0009F039F01DF015F007F007F007F007F0057
:103CF000FF07FF07FF03FF01FF00FF007F00FF0139
:103D0000BF019F01DF015F007F007F007F007F0018
:103D1000FF07FF07FF03FF01FF00FF007F00FF0019
:103D2000FF01DF01DF015F007F007F007F007F0078
:103D3000FF07FF03FF03FF01FF00FF007F00FF00FD
:103D4000FF01DF01DF015F007F007F007F007F0058
:103D50007F07FF07FF03FF01FF00FF007F007F00D9
:103D6000FF01DF01DF01DF007F007F007F007F00B8
:103D70003F07FF07FF03FF01FF01FF007F007F00F8
:103D8000FF00DF01DF01DF007F007F007F007F0099
:103D90003F0FFF07FF03FF03FF01FF00FF007F004E
:103DA000FF00DF01DF01DF007F007F003F003F00F9
:103DB0003F0FFF07FF07FE03FF01FF00FF007F002B
:103DC000FF00DF01DF01FF007F003F003F003F00F9
:103DD0003F0EFF0FFF07FE07FE03FF01FF007F00FE
:103DE000FF00FF01DF01FF007F003F003F003F00B9
:103DF0003F067F0EFF0FFE07FE03FF01FF007F005F
:103E0000FF00FF01DF01FF007F003F003F003F0098
:103E10003E0E7F16FF1FFC0FFC07FF03FF017F0014
:103E2000FF00FF01FF01FF007F003F003F003F0058
:103E30007E0E7F06FF1EFC1FFC0FFF03FF01FF002D
:103E4000FF00FF00FF01FF007F003F003F003F0039
:103E50007E0F7E0EFF06FC1FFC1FFF07FF01FF0108
:103E6000FF00FF00FF01FF007F003E003F003F001A
:103E70007C0C7E0EFB0CF807FC1FFF0FFF03FF01FD
:103E8000FF00FF00FF01FF007F003E003E003F00FB
:103E90007C087E0CFB0CF807F81FFF1FFF07FF01D3
:103EA000FF00FF00FF01FF007D003E003E003F00DD
:103EB00038007E08FF1CF90DF81FFF1FFF07FF01E8
:103EC000FF00FF00FF01FF007F007E003E003E007C
:103ED00038007C00FE00F91DF80FFE1FFF07FF01F0
:103EE000FF00FF00FF01FF007E007F007F007F00DA
:103EF00010007C00FE00FB0DF80FFE0FFF07FF0116
:103F0000FF00FF01BF01FF007F007D007F007F00F9
:103F100000007800FC00F30CF80FFC0FFF07FF0116
:103F2000FF00BF01BF01FF007D007D007D005F003D
:103F300000007800FC00F606F00FFC0FFF03FF0006
:103F4000FF00BF01BF017F007D007D007D005F009D
:103F500000007000F802F606F00FFC0FFF03FF00F0
:103F6000FF00BF01BF01790078007F007F005F0084
:103F7000000030007802F406F00FF807FF01FE00A1
:103F8000FF00BF01FF0178007A007F005F005F0043
:103F9000000000007802FC02F00FF807FE01FE00AE
:103FA000FF01FF01F3007A007B00FF005F009F002C
:103FB000000000007002F806E007F803FE01FC00B4
:103FC000FF01FF01F100FC00FF007F009F00BF0028
:103FD000000000007000F806E007F003FC01FC00A0
:103FE000FE01FE01F000F600FF003F00BE003F00B2
:103FF000000000006000F006E007F003FC01FC0098
:10400000FE01FE00F000F6003E00BF00BC007FC1D4
:10401000000000006000F002E807F003F800FC0078
:104020007C01F800FC00BC00BC00B9007F01FFFF70
:10403000000000004000F002E803F001F800F80181
:104040007C01E000FC003C00BF007C00FFFDFFEFB6
:10405000000000000000E002C003F001F8007C0155
:10406000FC01E000F800BC00BB007FE1FFFFFF1097
:10407000000000000000E002C003F001F000780141
:10408000F000E800F800BE007F00FFFFFF10FF080F
:10409000000000000000E002C003E001F000780131
:1040A000F000F800F800F2007FF1FF7FFF081D002C
:1040B000000000000000E000C003E001F000780113
:1040C000E000F000B8007F00FFFFFF083B00100099
:1040D000000000000000C002C003E001E000700129
:1040E000D000F000FC007F61FF3FFF0031000000C6
:1040F000000000000000C002C003E0006001F0000A
:10410000D000F0007900FF7FFF08370010000000AA
:10411000000000000000C002C003E0006001F000E9
:10412000D000F0007700FF1FFF0421000000000016
:10413000000000000000C001C003E0006001E000DA
:10414000E000F8007F31FF093700000000000000A8
:10415000000000000000C001C001E0006001C000DC
:10416000E0006000FF3FFF002300000000000000AF
:10417000000000000000C0018001E0007001C000EC
:10418000E0007E00FF1FFF00230000000000000091
:10419000000000000000C0018001E0006001E000BC
:1041A000F0007E20FF1F2F00000000000000000034
:1041B000000000000000C0018001E000E001E0001C
:1041C00070007E10FF0426000000000000000000C8
:1041D000000000000000C0018001E000C001E0001C
:1041E0007000FE1DFF002200000000000000000023
:1041F00000000000000080018001E000C000E0003D
:104200007000FE1FDE000000000000000000000043
:1042100000000000000080018001E000C000E0001C
:104220006400FE0F1E0000000000000000000000FF
:1042300000000000000080018001C000C0004000BC
:104240006C00FE0D4E0000000000000000000000A9
:1042500000000000000080018001C000C00040009C
:10426000FC18FC04440000000000000000000000F6
:1042700000000000000080008001C000C00040007D
:10428000FC0CFC00400000000000000000000000EA
:1042900000000000000000008001C000800040001D
:1042A000FC0F7C0200000000000000000000000085
:1042B00000000000000000008001C00080006000DD
:1042C000FC075C000000000000000000000000008F
:1042D00000000000000000008001C00080004000DD
:1042E000F807480000000000000000000000000087
:1042F00000000000000000008001C000C00040007D
:10430000F8000800000000000000000000000000AD
:1043100000000000000000008001C000C000F800A4
:10432000F802000000000000000000000000000093
:1043300000000000000000008001C000C000F0008C
:10434000F800000000000000000000000000000075
:1043500000000000000000008001C000C000F00468
:1043600078000000000000000000000000000000D5
:1043700000000000000000008000C000C000F00449
:1043800078000000000000000000000000000000B5
:1043900000000000000000008000C000C000F00627
:1043A00058000000000000000000000000000000B5
:1043B00000000000000000008000C000C000F00706
:1043C000500000000000000000000000000000009D
:1043D00000000000000000018000C0004000F00765
:1043E000500000000000000000000000000000007D
:1043F00000000000000000008000C0004000F00746
:10440000500000000000000000000000000000005C
:1044100000000000000000008000C0004000F00329
:10442000400000000000000000000000000000004C
:1044300000000000000000008000C0004000F00309
:10444000400000000000000000000000000000002C
:1044500000000000000000008000C0004000F003E9
:10446000400000000000000000000000000000000C
:1044700000000000000000008000C0004000F003C9
:1044800040000000000000000000000000000000EC
:1044900000000000000000008000C0004000F003A9
:1044A000000000000000000000000000000000000C
:1044B00000000000000000008000C0004000F00389
:1044C00000000000000000000000000000000000EC
:1044D00000000000000000008000C0004000F00369
:1044E00000000000000000000000000000000000CC
:1044F00000000000000000008000C0004000F0014B
:1045000000000000000000000000000000000000AB
:1045100000000000000000008000C0004000F0012A
:10452000000000000000000000000000000000008B
:1045300000000000000000018000C0004000F00307
:10454000000000000000000000000000000000006B
:1045500000000000000000008000C0004000F003E8
:10456000000000000000000000000000000000004B
:1045700000000000000000008000C000C000F00249
:10458000000000000000000000000000000000002B
:1045900000000000000000008000C000C000F00229
:1045A000000000000000000000000000000000000B
:1045B00000000000000080008000C0008000F002C9
:1045C00000000000000000000000000000000000EB
:1045D0000000000000008001800080008000F002E8
:1045E00000000000000000000000000000000000CB
:1045F0000000000000008001800080008000F002C8
:1046000000000000000000000000000000000000AA
:104610000000000000008001800080008000F000A9
:10462000000000000000000000000000000000008A
:104630000000000000008001800080008000F00089
:10464000000000000000000000000000000000006A
:104650000000000000008001800080008000F00069
:10466000000000000000000000000000000000004A
:10467000000000000000800080008000C000F0000A
:10468000000000000000000000000000000000002A
:10469000000000000000800080008000C000F000EA
:1046A000000000000000000000000000000000000A
:1046B0000000000000008000800080008000F00208
:1046C00000000000000000000000000000000000EA
:1046D0000000000000008000800080009000F002D8
:1046E00000000000000000000000000000000000CA
:1046F0000000000000008000800080009000F002B8
:1047000000000000000000000000000000000000A9
:104710000000000000008000800080009000B000D9
:104720000000000000000000000000000000000089
:10473000000000000000800080008000B000B00099
:104740000000000000000000000000000000000069
:10475000000000000000800080008000B000F00039
:104760000000000000000000000000000000000049
:10477000000000000000800080008000B000F00217
:104780000000000000000000000000000000000029
:10479000000000000000800080008000B000F002F7
:1047A0000000000000000000000000000000000009
:1047B000000000000000800080008000B000F002D7
:1047C00000000000000000000000000000000000E9
:1047D0000000000000008000800080009000F002D7
:1047E00000000000000000000000000000000000C9
:1047F0000000000000008000800080008000F002C7
:1048000000000000000000000000000000000000A8
:104810000000000000008000800080008000F002A6
:104820000000000000000000000000000000000088
:104830000000000000008000800080008000F00286
:104840000000000000000000000000000000000068
:104850000000000000008000800080008000F00266
:104860000000000000000000000000000000000048
:10487000000000000000800080018000C000F00205
:104880000000000000000000000000000000000028
:10489000000000000000000080018000C000F00364
:1048A0000000000000000000000000000000000008
:1048B000000000000000000080018000C000F00146
:1048C00000000000000000000000000000000000E8
:1048D000000000000000000080018000C000F00126
:1048E00000000000000000000000000000000000C8
:1048F000000000000000000080018001C000F007FF
:1049000000000000000000000000000000000000A7
:104910000000000000000000000180018000F0079E
:104920000000000000000000000000000000000087
:104930000000000000000000000180018000F0077E
:104940000000000000000000000000000000000067
:104950000000000000000000000180018000F0075E
:104960001000000000000000000000000000000037
:104970000000000000000000000180018000F0073E
:104980001000000000000000000000000000000017
:104990000000000000000000000180018000F0071E
:1049A00030000000000000000000000000000000D7
:1049B0000000000000000000000180018000F00500
:1049C00030000000000000000000000000000000B7
:1049D0000000000000000000000180018000F005E0
:1049E0003000000000000000000000000000000097
:1049F0000000000000000000000180018000F009BC
:104A00003000000000000000000000000000000076
:104A10000000000000000000000180018000B009DB
:104A20003000000000000000000000000000000056
:104A30000000000000000000000180018000B009BB
:104A40003000000000000000000000000000000036
:104A50000000000000000000000180018000A001B3
:104A60003000000000000000000000000000000016
:104A70000000000000000000800180008000E001D4
:104A800030020000000000000000000000000000F4
:104A90000000000000000000800080008000F001A5
:104AA000B002000000000000000000000000000054
:104AB0000000000000000000800080008000F00185
:104AC000B002000000000000000000000000000034
:104AD0000000000000000000800080008000B001A5
:104AE000B002000000000000000000000000000014
:104AF0000000000000000000800080008000B00185
:104B0000B0020000000000000000000000000000F3
:104B10000000000000000000800080008000B00065
:104B2000B0000000000000000000000000000000D5
:104B30000000000000000000800180018000F00003
:104B40003000000000000000000000000000000035
:104B50000000000000000000800180018000F000E3
:104B60003000000000000000000000000000000015
:104B70000000000000000000800180018000F001C2
:104B800030000000000000000000000000000000F5
:104B90000000000000000000800180018000F000A3
:104BA00030000000000000000000000000000000D5
:104BB00000000000000000008001C0018000F0043F
:104BC00030000000000000000000000000000000B5
:104BD00000000000000000008001C0018000F0051E
:104BE0003000000000000000000000000000000095
:104BF00000000000000000008001C0018000F005FE
:104C00003000000000000000000000000000000074
:104C100000000000000000008001C0018000F007DB
:104C20001000000000000000000000000000000074
:104C300000000000000000008001C0018000F007BB
:104C40001000000000000000000000000000000054
:104C500000000000000000008001C0008000F0079C
:104C60001000000000000000000000000000000034
:104C700000000000000000008001C0008000F0077C
:104C80001000000000000000000000000000000014
:104C900000000000000000008000C000C000F0071D
:104CA00010000000000000000000000000000000F4
:104CB00000000000000000008000C000C000F005FF
:104CC00000000000000000000000000000000000E4
:104CD00000000000000000008000C0004000F00163
:104CE00000000000000000000000000000000000C4
:104CF00000000000000080008000C0004000F000C4
:104D000000000000000000000000000000000000A3
:104D100000000000000080018000C0004000F002A0
:104D20000000000000000000000000000000000083
:104D300000000000000080008000C0004000F00281
:104D40000000000000000000000000000000000063
:104D500000000000000080018000C0006000F00042
:104D60000000000000000000000000000000000043
:104D700000000000000080018000C0006000F00022
:104D80000000000000000000000000000000000023
:104D900000000000000080008000C0005000F8000B
:104DA0000000000000000000000000000000000003
:104DB0000000000000008000C000C0007000F8008B
:104DC00000000000000000000000000000000000E3
:104DD0000000000000008000C000C0007000F8006B
:104DE00000000000000000000000000000000000C3
:104DF0000000000000008000C000C0005000F00073
:104E000000000000000000000000000000000000A2
:104E10000000000000008000C000C0005000F00052
:104E20000000000000000000000000000000000082
:104E3000000000000000C000C00080005000F8002A
:104E40000000000000000000000000000000000062
:104E5000000000000000C000C000400048007801D1
:104E60000000000000000000000000000000000042
:104E7000000000000000C0004000600078007C01DD
:104E80000000000000000000000000000000000022
:104E9000000000000000E000600060003C007C00BA
:104EA0000000000000000000000000000000000002
:104EB00000000000000040006000600064007E0010
:104EC00000000000000000000000000000000000E2
:104ED00000000000000040006000300034007E0050
:104EE00000000000000000000000000000000000C2
:104EF0000000000000006000300030003A007E003A
:104F0000120000000000000000000000000000008F
:104F10000000000000006000300030001200FF01BF
:104F2000120000000000000000000000000000006F
:104F30000000000000006000300020003000FF0191
:104F4000030000000000000000000000000000005E
:104F50000000000000006000300038001C00FF016D
:104F6000070000000000000000000000000000003A
:104F70000000000000002000380010001C00BF01ED
:104F8000070000000000000000000000000000001A
:104F90000000000000003000180010001C003F015D
:104FA0001F000000000000000000000000000000E2
:104FB0000000000000003000180010001C001F005E
:104FC0005F0008000000000000000000000000007A
:104FD00000000000000030001800100018001F0042
:104FE0001F0008000000000000000000000000009A
:104FF00000000000000010001800100018001F0042
:10500000DF000900000000000000000000000000B8
:1050100000000000000010001800180018001F0019
:105020007F000900000000000000000000000000F8
:1050300000000000000010003800180018001F00D9
:105040007F000B00000000000000000000000000D6
:1050500000000000000010003800380018001F0099
:105060007F000B00000000000000000000000000B6
:10507000000000000000100030003800180016008A
:105080007F0017000000000000000000000000008A
:105090000000000000001000300030003800160052
:1050A0007F001600000000800080008000800080EB
:1050B0000000000000000000200030003800140054
:1050C0007E000E000000004000C000C000C000C014
:1050D000000000000000000020003000200014004C
:1050E0007E000E000000002000E000E000E000E094
:1050F00000000000000000002000300020001C0024
:105100003C001C000000001000D000F000F000F097
:105110000000000000000000200030002000180007
:105120003C001C000000008800C800F800F800F8EF
:1051300000000000000000002000300020003800C7
:1051400038003800008000C400C400FC00FC00FCF3
:1051500000000000000000002000300020003800A7
:105160003800380000400040006000FC00FC00FCFB
:10517000000000000000000020003000200030008F
:105180003800380000400040006000FC00FC00FCDB
:10519000000000000000000020003000200030006F
:1051A0003800380000400040006000FC00FC00FCBB
:1051B000000000000000000020002000200030005F
:1051C0003800380000400040006000FC00FC00FC9B
:1051D000000000000000000020002000200030003F
:1051E0007800380000400040006000FC00FC00FC3B
:1051F000000000000000000020002000200030001F
:105200007800380000400040006000FC00FC00FC1A
:1052100000000000000000002000200020003800F6
:105220007800380000400040006000FC00FC00FCFA
:1052300000000000000000002000200020003800D6
:105240007800380000400040006000FC00FC00FCDA
:105250000000000000000000200030003000380096
:105260007800380000400040006000FC00FC00FCBA
:105270000000000000000000200020003000380086
:105280007800380000400040006000FC00FC00FC9A
:105290000000000000000000200020003000380066
:1052A0007800300000400040006000FC00FC00FC82
:1052B0000000000000000000200020003000380046
:1052C0007800300000400040006000FC00FC00FC62
:1052D0000000000000000000200020003000380026
:1052E0007800300000400040004000FC00FC00FC62
:1052F0000000000000000000200020003000380006
:105300007800200000400040004000FC00FC00FC51
:1053100000000000000000002000200030003800E5
:105320007800000000400040004000FC00FC00FC51
:1053300000000000000000002000200030003800C5
:105340007800000000400040004000FC00FC00FC31
:1053500000000000000000002000200030003800A5
:105360007800000000400040004200FC00FC00FC0F
:105370000000000000002000200020003000380065
:105380007800000000400042004200FE00FE00FEE7
:105390000000000000002000200020003000380045
:1053A0003800000000400042004200FE00FE00FE07
:1053B0000000000000002000200020002000380035
:1053C0003800000000400042004200FE00FE00FEE7
:1053D0000000000000002000200020002000380015
:1053E0003800000000400042004200FE00FE00FEC7
:1053F00000000000000020006000200020003800B5
:105400003800000000400042004200FE00FE00FEA6
:105410000000000000002000600020002000380094
:105420003800000000400042004200FE00FE00FE86
:105430000000000000002000600020002000380074
:105440003800000000400062005200FE00FE00FE36
:105450000000000000002000600020002000380054
:105460003800000000400062005200FE00FE00FE16
:105470000000000000002000600020002000380034
:105480001800000000400062005200FE00FE00FE16
:105490000000000000002000600020002000380014
:1054A0001000000000400062005200FE00FE00FEFE
:1054B00000000000000020006000200030003800E4
:1054C0001000000000400062007200FE00FE00FEBE
:1054D00000000000000020006000200020003800D4
:1054E0001000000000400062007200FE00FE00FE9E
:1054F00000000000000020006000200020003800B4
:105500001000000000400062007200FE00FE00FE7D
:105510000000000000002000600020002000380093
:105520001000000000400062007200FE00FE00FE5D
:105530000000000000002000600020002000380073
:105540001800000000400062007200FE00FE00FE35
:105550000000000000002000600020002000380053
:105560005000000000400062007200FE00FE00FEDD
:105570000000000000002000600020002000380033
:105580007800000000400062007200FE00FE00FE95
:105590000000000000000000200020002000380073
:1055A0007800000000400062007200FE00FE00FE75
:1055B000000000000000000020002000200030005B
:1055C0007800000000400062007200FE00FE00FE55
:1055D00000000000000000006000200020003000FB
:1055E0007800000000400062007200FE00FE00FE35
:1055F00000000000000000006000200020003800D3
:105600007800000000400062007200FE00FE00FE14
:1056100000000000000000002000200020003000FA
:105620007800000000400062007200FE00FE00FEF4
:1056300000000000000000002000200020003000DA
:105640007000000000400062007200FE00FE00FEDC
:1056500000000000000000002000200020003000BA
:105660007800000000400072007200FE00FE00FEA4
:10567000000000000000000020002000200030009A
:105680007800000000400072007200FE00FE00FE84
:10569000000000000000000020002000200030007A
:1056A0007000100000400072007200FE00FE00FE5C
:1056B000000000000000000000002000200030007A
:1056C0007800100000400072007A00FE00FE00FE2C
:1056D000000000000000000000002000200030005A
:1056E0007000100000400072007A00FE00FE00FE14
:1056F000000000000000000000002000200030003A
:105700007000100000400072007800FE00FE00FEF5
:105710000000000000000000000020002000300019
:105720003000100000400070007800FE00FE00FE17
:1057300000000000000000000000200020003000F9
:105740003000180000400070007800FE00FE00FEEF
:1057500000000000000000000000200020003000D9
:105760003000100000400070007800FE00FE00FED7
:1057700000000000000000000000200020003000B9
:105780007000100000400070007800FE00FE00FE77
:105790000000000000000000000020002000300099
:1057A0007000100000400070007800FE00FE00FE57
:1057B0000000000000000000000020002000200089
:1057C0007800100000400070007800FE00FE00FE2F
:1057D0000000000000000000000020002000200069
:1057E0007800100000400070007800FE00FE00FE0F
:1057F0000000000000000000000020002000200049
:105800007800100000400070007800FE00FE00FEEE
:105810000000000000000000000020002000200028
:105820007800100000400070007800FE00FE00FECE
:105830000000000000000000000020002000200008
:105840007800100000400070007800FE00FE00FEAE
:1058500000000000000000000000200020003000D8
:105860007000100000400070007800FE00FE00FE96
:1058700000000000000000000000200020003000B8
:105880003000100000400070007800FE00FE00FEB6
:105890000000000000000000000020006000300058
:1058A0003000100000400070007800FE00FE00FE96
:1058B0000000000000000000000020006000300038
:1058C0003000100000400070007800FE00FE00FE76
:1058D0000000000000000000000020006000300018
:1058E0003000100000400071007C00FE00FE00FE51
:1058F00000000000000000000000200060003000F8
:105900007000100000400071007D00FF00FF00FFEC
:105910000000000000000000000020002000300017
:105920007000100000400071007D00FF00FF00FFCC
:1059300000000000000000000000200020003000F7
:105940007000100000400071007D00FF00FF00FFAC
:1059500000000000000000000000200040003000B7
:105960007000000000400071007D00FF00FF00FF9C
:105970000000000000000000000020004000300097
:105980007000000000600071007D00FF00FF00FF5C
:105990000000000000000000000020004000300077
:1059A0007000000000600071007D00FF00FF00FF3C
:1059B0000000000000000000400020004000300017
:1059C0007000000000600071007D00FF00FF00FF1C
:1059D00000000000000000004000200060003000D7
:1059E0007000000000600071007D00FF00FF00FFFC
:1059F00000000000000000004000200060003000B7
:105A00007000000000600061007D00FF00FF00FFEB
:105A10000000000000000000400020006000300096
:105A20007000000000600061007D00FF00FF00FFCB
:105A30000000000000000000400060006000300036
:105A40007000000000600061006D00FF00FF00FFBB
:105A500000000000000000006000200060007000F6
:105A60007000000000600061006D00FF00FF00FF9B
:105A70000000000000000000600020002000700016
:105A80007000000000600061006D00FF00FF00FF7B
:105A900000000000000000006000200020007000F6
:105AA0007000000000600061006D00FF00FF00FF5B
:105AB00000000000000000006000200020007000D6
:105AC0007000000000600061006D00FF00FF00FF3B
:105AD00000000000000000006000200020007000B6
